:200000000C9461000C947E000C947E000C947E000C947E000C947E000C947E000C947E000D
:200020000C947E000C947E000C947E000C947E000C947E000C947E000C947E000C947E00D0
:200040000C94EA000C947E000C947E000C947E000C947E000C947E000C947E000C947E0044
:200060000C947E000C947E0000000000240027002A0000000000250028002B000000000057
:20008000230026002900040404040404040402020202020203030303030301020408102071
:2000A0004080010204081020010204081020000000070002010000030406000000000000EB
:2000C000000011241FBECFEFD8E0DEBFCDBF11E0A0E0B1E0E8ECF4E002C005900D92A830F7
:2000E000B107D9F711E0A8E0B1E001C01D92A531B107E1F70E942C020C9462020C94000024
:2001000085E00E94770160E170E00E943B0264597E4F70930901609308018091000160E00B
:200120000E94D8018091020160E00E94D8018AE090E00E9432018091000161E00E94D801F8
:2001400084EF91E00E9432018091000160E00E94D80186E990E00E9432018091020161E010
:200160000E94D80181E090E00E94320184E00E94770190930B0180930A018AE090E00E9417
:20018000320120910A0130910B0180910801909109018217930724F48091040161E003C0F9
:2001A0008091040160E00E94D80180ED97E00E94320108958091000161E00E949901809178
:2001C000020161E00E9499018091040161E00E94990108951F920F920FB60F9211242F93C0
:2001E0003F938F939F93AF93BF938091100190911101A0911201B0911301309114010196EA
:20020000A11DB11D232F2D5F2D3720F02D570196A11DB11D20931401809310019093110138
:20022000A0931201B093130180910C0190910D01A0910E01B0910F010196A11DB11D80930D
:200240000C0190930D01A0930E01B0930F01BF91AF919F918F913F912F910F900FBE0F9050
:200260001F901895019739F0880F991F880F991F02970197F1F70895789484B5826084BDA5
:2002800084B5816084BD85B5826085BD85B5816085BDEEE6F0E0808181608083E1E8F0E026
:2002A0001082808182608083808181608083E0E8F0E0808181608083E1EBF0E080818460E3
:2002C0008083E0EBF0E0808181608083EAE7F0E0808184608083808182608083808181604A
:2002E00080838081806880831092C1000895982F8E3008F09E509770809106018295880FD7
:20030000880F807C892B80937C0080917A00806480937A0080917A0086FDFCCF2091780009
:2003200040917900942F80E030E0282B392BC9010895CF93DF93482F50E0CA0186569F4F12
:20034000FC0134914A575F4FFA018491882369F190E0880F991FFC01E859FF4FA591B491B1
:20036000FC01EE58FF4FC591D491662351F42FB7F8948C91932F909589238C93888189236D
:200380000BC0623061F42FB7F8948C91932F909589238C938881832B88832FBF06C09FB79E
:2003A000F8948C91832B8C939FBFDF91CF910895482F50E0CA0182559F4FFC012491CA0148
:2003C00086569F4FFC0194914A575F4FFA013491332309F440C0222351F1233071F0243040
:2003E00028F42130A1F0223011F514C02630B1F02730C1F02430D9F404C0809180008F7758
:2004000003C0809180008F7D8093800010C084B58F7702C084B58F7D84BD09C08091B00008
:200420008F7703C08091B0008F7D8093B000E32FF0E0EE0FFF1FEE58FF4FA591B4912FB771
:20044000F894662321F48C919095892302C08C91892B8C932FBF0895CF93DF930E943C0194
:200460000E94DA00C0E0D0E00E9480002097E1F30E940000F9CF97FB092E07260AD077FD55
:2004800004D00CD006D000201AF4709561957F4F0895F6F7909581959F4F0895AA1BBB1BF4
:2004A00051E107C0AA1FBB1FA617B70710F0A61BB70B881F991F5A95A9F780959095BC01BD
:2004C000CD010895F894FFCF0200090006000100892B8C932FBF0895CF93DF930E943C0134
:2004E0000E94DA00C0E0D0E00E9480002097E1F30E940000F9CF97FB092E07260AD077FDD5
:200500002091A9013091AA018091AB019091AC012817390731F48091C1008F7D8093C10033
:2005200016C0E091AB01F091AC01E759FE4F40818091AB019091AC01019660E470E00E94F4
:200540006F049093AC018093AB014093C600FF91EF91BF91AF919F918F917F916F915F9110
:200560004F913F912F910F900FBE0F901F901895AF92BF92DF92EF92FF920F931F93CF93D9
:20058000DF93EC017A018B01DD24403081EE580780E0680780E0780711F0DD24D39491E02E
:2005A000A92EB12CEC89FD89DD2069F0C5010E8C02C0880F991F0A94E2F7808360E079E0B2
:2005C0008DE390E005C0108260E874E88EE190E0A80197010E948204215030404040504007
:2005E000569547953795279580E12030380720F0DD2011F0DD24D6CFE889F9893083EA89EF
:20060000FB892083EE89FF89408121E030E0C9010A8C02C0880F991F0A94E2F7482B4083C4
:20062000EE89FF894081C9010B8C02C0880F991F0A94E2F7482B4083EE89FF894081C90151
:200640000C8C02C0880F991F0A94E2F7482B4083EE89FF8980810D8C02C0220F331F0A94C8
:20066000E2F7209528232083DF91CF911F910F91FF90EF90DF90BF90AF900895DC011C96A7
:20068000ED91FC911D97E05CFF4F2191319180819181281B390B2F733070C9010895DC017D
:2006A0001C96ED91FC911D97E05CFF4F20813181E054F040DF01AE5BBF4F8D919C9111979E
:2006C0002817390719F42FEF3FEF07C08D919C91E80FF91F8081282F30E0C9010895DC0175
:2006E0001C96ED91FC911D97E05CFF4F20813181E054F040DF01AE5BBF4F8D919C9111975E
:200700002817390719F42FEF3FEF10C08D919C911197E80FF91F20818D919C911197019604
:200720008F73907011969C938E9330E0C9010895FC0186859785DC01A05CBF4FFC01EE5BF8
:20074000FF4F2D913C9111978081918128173907C1F70895CF93DF93EC01462FEE85FF8504
:20076000E05CFF4F80819181E054F040019660E470E00E946F049C01DF01AE5BBF4F8D9186
:200780009C91119728173907D1F3E05CFF4F80819181E054F040E80FF91F4083EE85FF8577
:2007A000E05CFF4F31832083EE89FF89208181E090E00D8C02C0880F991F0A94E2F7282B73
:2007C000208381E090E0DF91CF9108951092B0011092AF0188EE93E0A0E0B0E08093B101D5
:2007E0009093B201A093B301B093B4018BE091E09093AE018093AD0185E291E09093BA011F
:200800008093B90189E691E09093BC018093BB0185EC90E09093BE018093BD0184EC90E008
:200820009093C0018093BF0180EC90E09093C2018093C10181EC90E09093C4018093C301CE
:2008400086EC90E09093C6018093C50184E08093C70183E08093C80187E08093C90185E0CC
:200860008093CA0181E08093CB010895CF93DF930E9450010E94E600CCE5D2E00E948C00DD
:200880002097E1F30E945C02F9CFCF92DF92EF92FF920F931F93CF93DF937C016B018A0185
:2008A000C0E0D0E00FC0D6016D916D01D701ED91FC910190F081E02DC7010995C80FD91FAF
:2008C000015010400115110571F7CE01DF91CF911F910F91FF90EF90DF90CF90089597FBE9
:2008E000092E07260AD077FD04D02ED006D000201AF4709561957F4F0895F6F790958195E2
:200900009F4F0895A1E21A2EAA1BBB1BFD010DC0AA1FBB1FEE1FFF1FA217B307E407F507F3
:2009200020F0A21BB30BE40BF50B661F771F881F991F1A9469F760957095809590959B01E5
:20094000AC01BD01CF010895AA1BBB1B51E107C0AA1FBB1FA617B70710F0A61BB70B881FE3
:20096000991F5A95A9F780959095BC01CD010895EE0FFF1F0590F491E02D0994F894FFCF95
:200980000200090006000100000000AA0345043E036F034F03980300A217B307E407F50755
:2009A00020F0A21BB30BE40BF50B661F771F881F991F1A9469F760957095809590959B0165
:2009C000AC01BD01CF010895AA1BBB1B51E107C0AA1FBB1FA617B70710F0A61BB70B881F63
:2009E000991F5A95A9F780959095BC01CD010895EE0FFF1F0590F491E02D0994F894FFCF15
:200A0000FFFFFFFFFFFFFFFFFFFFFFFFFFFFFFFFFFFFFFFFFFFFFFFFFFFFFFFFFFFFFFFFF6
:200A2000FFFFFFFFFFFFFFFFFFFFFFFFFFFFFFFFFFFFFFFFFFFFFFFFFFFFFFFFFFFFFFFFD6
:200A4000FFFFFFFFFFFFFFFFFFFFFFFFFFFFFFFFFFFFFFFFFFFFFFFFFFFFFFFFFFFFFFFFB6
:200A6000FFFFFFFFFFFFFFFFFFFFFFFFFFFFFFFFFFFFFFFFFFFFFFFFFFFFFFFFFFFFFFFF96
:207E0000112484B714BE81FFF0D085E08093810082E08093C00088E18093C10086E08093FC
:207E2000C20080E18093C4008EE0C9D0259A86E020E33CEF91E0309385002093840096BBAD
:207E4000B09BFECF1D9AA8958150A9F7CC24DD2488248394B5E0AB2EA1E19A2EF3E0BF2E79
:207E6000A2D0813461F49FD0082FAFD0023811F0013811F484E001C083E08DD089C0823404
:207E800011F484E103C0853419F485E0A6D080C0853579F488D0E82EFF2485D0082F10E0A0
:207EA000102F00270E291F29000F111F8ED068016FC0863521F484E090D080E0DECF84364D
:207EC00009F040C070D06FD0082F6DD080E0C81680E7D80618F4F601B7BEE895C0E0D1E0ED
:207EE00062D089930C17E1F7F0E0CF16F0E7DF0618F0F601B7BEE89568D007B600FCFDCF1A
:207F0000A601A0E0B1E02C9130E011968C91119790E0982F8827822B932B1296FA010C016F
:207F200087BEE89511244E5F5F4FF1E0A038BF0751F7F601A7BEE89507B600FCFDCF97BE85
:207F4000E89526C08437B1F42ED02DD0F82E2BD03CD0F601EF2C8F010F5F1F4F84911BD0B8
:207F6000EA94F801C1F70894C11CD11CFA94CF0CD11C0EC0853739F428D08EE10CD085E9AE
:207F80000AD08FE07ACF813511F488E018D01DD080E101D065CF982F8091C00085FFFCCF0A
:207FA0009093C60008958091C00087FFFCCF8091C00084FD01C0A8958091C6000895E0E68F
:207FC000F0E098E1908380830895EDDF803219F088E0F5DFFFCF84E1DECF1F93182FE3DF47
:207FE0001150E9F7F2DF1F91089580E0E8DFEE27FF270994FFFFFFFFFFFFFFFFFFFF040425
:00000001FF
